{
  "_format": "hh-sol-artifact-1",
  "contractName": "AfriTrace",
  "sourceName": "contracts/Afritrace.sol",
  "abi": [
    {
      "inputs": [
        {
          "internalType": "address",
          "name": "_paymentToken",
          "type": "address"
        },
        {
          "internalType": "address",
          "name": "_priceFeed",
          "type": "address"
        },
        {
          "internalType": "address",
          "name": "_vrfCoordinator",
          "type": "address"
        },
        {
          "internalType": "bytes32",
          "name": "_keyHash",
          "type": "bytes32"
        }
      ],
      "stateMutability": "nonpayable",
      "type": "constructor"
    },
    {
      "inputs": [],
      "name": "AccessControlBadConfirmation",
      "type": "error"
    },
    {
      "inputs": [
        {
          "internalType": "address",
          "name": "account",
          "type": "address"
        },
        {
          "internalType": "bytes32",
          "name": "neededRole",
          "type": "bytes32"
        }
      ],
      "name": "AccessControlUnauthorizedAccount",
      "type": "error"
    },
    {
      "inputs": [
        {
          "internalType": "address",
          "name": "sender",
          "type": "address"
        },
        {
          "internalType": "uint256",
          "name": "tokenId",
          "type": "uint256"
        },
        {
          "internalType": "address",
          "name": "owner",
          "type": "address"
        }
      ],
      "name": "ERC721IncorrectOwner",
      "type": "error"
    },
    {
      "inputs": [
        {
          "internalType": "address",
          "name": "operator",
          "type": "address"
        },
        {
          "internalType": "uint256",
          "name": "tokenId",
          "type": "uint256"
        }
      ],
      "name": "ERC721InsufficientApproval",
      "type": "error"
    },
    {
      "inputs": [
        {
          "internalType": "address",
          "name": "approver",
          "type": "address"
        }
      ],
      "name": "ERC721InvalidApprover",
      "type": "error"
    },
    {
      "inputs": [
        {
          "internalType": "address",
          "name": "operator",
          "type": "address"
        }
      ],
      "name": "ERC721InvalidOperator",
      "type": "error"
    },
    {
      "inputs": [
        {
          "internalType": "address",
          "name": "owner",
          "type": "address"
        }
      ],
      "name": "ERC721InvalidOwner",
      "type": "error"
    },
    {
      "inputs": [
        {
          "internalType": "address",
          "name": "receiver",
          "type": "address"
        }
      ],
      "name": "ERC721InvalidReceiver",
      "type": "error"
    },
    {
      "inputs": [
        {
          "internalType": "address",
          "name": "sender",
          "type": "address"
        }
      ],
      "name": "ERC721InvalidSender",
      "type": "error"
    },
    {
      "inputs": [
        {
          "internalType": "uint256",
          "name": "tokenId",
          "type": "uint256"
        }
      ],
      "name": "ERC721NonexistentToken",
      "type": "error"
    },
    {
      "inputs": [
        {
          "internalType": "address",
          "name": "have",
          "type": "address"
        },
        {
          "internalType": "address",
          "name": "want",
          "type": "address"
        }
      ],
      "name": "OnlyVRFWrapperCanFulfill",
      "type": "error"
    },
    {
      "inputs": [],
      "name": "ReentrancyGuardReentrantCall",
      "type": "error"
    },
    {
      "anonymous": false,
      "inputs": [
        {
          "indexed": true,
          "internalType": "address",
          "name": "owner",
          "type": "address"
        },
        {
          "indexed": true,
          "internalType": "address",
          "name": "approved",
          "type": "address"
        },
        {
          "indexed": true,
          "internalType": "uint256",
          "name": "tokenId",
          "type": "uint256"
        }
      ],
      "name": "Approval",
      "type": "event"
    },
    {
      "anonymous": false,
      "inputs": [
        {
          "indexed": true,
          "internalType": "address",
          "name": "owner",
          "type": "address"
        },
        {
          "indexed": true,
          "internalType": "address",
          "name": "operator",
          "type": "address"
        },
        {
          "indexed": false,
          "internalType": "bool",
          "name": "approved",
          "type": "bool"
        }
      ],
      "name": "ApprovalForAll",
      "type": "event"
    },
    {
      "anonymous": false,
      "inputs": [
        {
          "indexed": false,
          "internalType": "address",
          "name": "user",
          "type": "address"
        },
        {
          "indexed": false,
          "internalType": "uint256",
          "name": "amount",
          "type": "uint256"
        }
      ],
      "name": "CarbonOffseted",
      "type": "event"
    },
    {
      "anonymous": false,
      "inputs": [
        {
          "indexed": false,
          "internalType": "uint256",
          "name": "disputeId",
          "type": "uint256"
        },
        {
          "indexed": false,
          "internalType": "uint256",
          "name": "productId",
          "type": "uint256"
        },
        {
          "indexed": false,
          "internalType": "address",
          "name": "initiator",
          "type": "address"
        }
      ],
      "name": "DisputeCreated",
      "type": "event"
    },
    {
      "anonymous": false,
      "inputs": [
        {
          "indexed": false,
          "internalType": "uint256",
          "name": "disputeId",
          "type": "uint256"
        },
        {
          "indexed": false,
          "internalType": "string",
          "name": "resolution",
          "type": "string"
        }
      ],
      "name": "DisputeResolved",
      "type": "event"
    },
    {
      "anonymous": false,
      "inputs": [
        {
          "indexed": false,
          "internalType": "uint256",
          "name": "tokenId",
          "type": "uint256"
        },
        {
          "indexed": false,
          "internalType": "address",
          "name": "certifier",
          "type": "address"
        }
      ],
      "name": "ProductCertified",
      "type": "event"
    },
    {
      "anonymous": false,
      "inputs": [
        {
          "indexed": false,
          "internalType": "uint256",
          "name": "tokenId",
          "type": "uint256"
        },
        {
          "indexed": false,
          "internalType": "string",
          "name": "name",
          "type": "string"
        },
        {
          "indexed": false,
          "internalType": "address",
          "name": "producer",
          "type": "address"
        }
      ],
      "name": "ProductCreated",
      "type": "event"
    },
    {
      "anonymous": false,
      "inputs": [
        {
          "indexed": true,
          "internalType": "bytes32",
          "name": "role",
          "type": "bytes32"
        },
        {
          "indexed": true,
          "internalType": "bytes32",
          "name": "previousAdminRole",
          "type": "bytes32"
        },
        {
          "indexed": true,
          "internalType": "bytes32",
          "name": "newAdminRole",
          "type": "bytes32"
        }
      ],
      "name": "RoleAdminChanged",
      "type": "event"
    },
    {
      "anonymous": false,
      "inputs": [
        {
          "indexed": true,
          "internalType": "bytes32",
          "name": "role",
          "type": "bytes32"
        },
        {
          "indexed": true,
          "internalType": "address",
          "name": "account",
          "type": "address"
        },
        {
          "indexed": true,
          "internalType": "address",
          "name": "sender",
          "type": "address"
        }
      ],
      "name": "RoleGranted",
      "type": "event"
    },
    {
      "anonymous": false,
      "inputs": [
        {
          "indexed": true,
          "internalType": "bytes32",
          "name": "role",
          "type": "bytes32"
        },
        {
          "indexed": true,
          "internalType": "address",
          "name": "account",
          "type": "address"
        },
        {
          "indexed": true,
          "internalType": "address",
          "name": "sender",
          "type": "address"
        }
      ],
      "name": "RoleRevoked",
      "type": "event"
    },
    {
      "anonymous": false,
      "inputs": [
        {
          "indexed": false,
          "internalType": "uint256",
          "name": "tokenId",
          "type": "uint256"
        },
        {
          "indexed": false,
          "internalType": "address",
          "name": "stakeholder",
          "type": "address"
        },
        {
          "indexed": false,
          "internalType": "string",
          "name": "location",
          "type": "string"
        }
      ],
      "name": "SupplyChainUpdated",
      "type": "event"
    },
    {
      "anonymous": false,
      "inputs": [
        {
          "indexed": true,
          "internalType": "address",
          "name": "from",
          "type": "address"
        },
        {
          "indexed": true,
          "internalType": "address",
          "name": "to",
          "type": "address"
        },
        {
          "indexed": true,
          "internalType": "uint256",
          "name": "tokenId",
          "type": "uint256"
        }
      ],
      "name": "Transfer",
      "type": "event"
    },
    {
      "inputs": [],
      "name": "ARBITER_ROLE",
      "outputs": [
        {
          "internalType": "bytes32",
          "name": "",
          "type": "bytes32"
        }
      ],
      "stateMutability": "view",
      "type": "function"
    },
    {
      "inputs": [],
      "name": "CERTIFIER_ROLE",
      "outputs": [
        {
          "internalType": "bytes32",
          "name": "",
          "type": "bytes32"
        }
      ],
      "stateMutability": "view",
      "type": "function"
    },
    {
      "inputs": [],
      "name": "DEFAULT_ADMIN_ROLE",
      "outputs": [
        {
          "internalType": "bytes32",
          "name": "",
          "type": "bytes32"
        }
      ],
      "stateMutability": "view",
      "type": "function"
    },
    {
      "inputs": [],
      "name": "VERIFIED_ROLE",
      "outputs": [
        {
          "internalType": "bytes32",
          "name": "",
          "type": "bytes32"
        }
      ],
      "stateMutability": "view",
      "type": "function"
    },
    {
      "inputs": [
        {
          "internalType": "uint256",
          "name": "_tokenId",
          "type": "uint256"
        },
        {
          "internalType": "string",
          "name": "_location",
          "type": "string"
        },
        {
          "internalType": "string",
          "name": "_stepDescription",
          "type": "string"
        },
        {
          "internalType": "int256",
          "name": "_temperature",
          "type": "int256"
        },
        {
          "internalType": "uint256",
          "name": "_humidity",
          "type": "uint256"
        }
      ],
      "name": "addSupplyChainStep",
      "outputs": [],
      "stateMutability": "nonpayable",
      "type": "function"
    },
    {
      "inputs": [
        {
          "internalType": "address",
          "name": "to",
          "type": "address"
        },
        {
          "internalType": "uint256",
          "name": "tokenId",
          "type": "uint256"
        }
      ],
      "name": "approve",
      "outputs": [],
      "stateMutability": "nonpayable",
      "type": "function"
    },
    {
      "inputs": [
        {
          "internalType": "address",
          "name": "owner",
          "type": "address"
        }
      ],
      "name": "balanceOf",
      "outputs": [
        {
          "internalType": "uint256",
          "name": "",
          "type": "uint256"
        }
      ],
      "stateMutability": "view",
      "type": "function"
    },
    {
      "inputs": [
        {
          "internalType": "address",
          "name": "",
          "type": "address"
        }
      ],
      "name": "carbonCredits",
      "outputs": [
        {
          "internalType": "uint256",
          "name": "",
          "type": "uint256"
        }
      ],
      "stateMutability": "view",
      "type": "function"
    },
    {
      "inputs": [
        {
          "internalType": "uint256",
          "name": "_tokenId",
          "type": "uint256"
        }
      ],
      "name": "certifyProduct",
      "outputs": [],
      "stateMutability": "nonpayable",
      "type": "function"
    },
    {
      "inputs": [
        {
          "internalType": "uint256",
          "name": "_tokenId",
          "type": "uint256"
        },
        {
          "internalType": "string",
          "name": "_description",
          "type": "string"
        }
      ],
      "name": "createDispute",
      "outputs": [],
      "stateMutability": "nonpayable",
      "type": "function"
    },
    {
      "inputs": [
        {
          "internalType": "string",
          "name": "_name",
          "type": "string"
        },
        {
          "internalType": "string",
          "name": "_description",
          "type": "string"
        },
        {
          "internalType": "string",
          "name": "_ipfsHash",
          "type": "string"
        },
        {
          "internalType": "uint256",
          "name": "_price",
          "type": "uint256"
        },
        {
          "internalType": "uint256",
          "name": "_carbonFootprint",
          "type": "uint256"
        }
      ],
      "name": "createProduct",
      "outputs": [
        {
          "internalType": "uint256",
          "name": "",
          "type": "uint256"
        }
      ],
      "stateMutability": "nonpayable",
      "type": "function"
    },
    {
      "inputs": [
        {
          "internalType": "uint256",
          "name": "",
          "type": "uint256"
        }
      ],
      "name": "disputes",
      "outputs": [
        {
          "internalType": "uint256",
          "name": "productId",
          "type": "uint256"
        },
        {
          "internalType": "address",
          "name": "initiator",
          "type": "address"
        },
        {
          "internalType": "string",
          "name": "description",
          "type": "string"
        },
        {
          "internalType": "bool",
          "name": "resolved",
          "type": "bool"
        },
        {
          "internalType": "string",
          "name": "resolution",
          "type": "string"
        }
      ],
      "stateMutability": "view",
      "type": "function"
    },
    {
      "inputs": [
        {
          "internalType": "uint256",
          "name": "tokenId",
          "type": "uint256"
        }
      ],
      "name": "getApproved",
      "outputs": [
        {
          "internalType": "address",
          "name": "",
          "type": "address"
        }
      ],
      "stateMutability": "view",
      "type": "function"
    },
    {
      "inputs": [],
      "name": "getBalance",
      "outputs": [
        {
          "internalType": "uint256",
          "name": "",
          "type": "uint256"
        }
      ],
      "stateMutability": "view",
      "type": "function"
    },
    {
      "inputs": [
        {
          "internalType": "uint256",
          "name": "_price",
          "type": "uint256"
        }
      ],
      "name": "getLatestPrice",
      "outputs": [
        {
          "internalType": "uint256",
          "name": "",
          "type": "uint256"
        }
      ],
      "stateMutability": "view",
      "type": "function"
    },
    {
      "inputs": [],
      "name": "getLinkToken",
      "outputs": [
        {
          "internalType": "contract LinkTokenInterface",
          "name": "",
          "type": "address"
        }
      ],
      "stateMutability": "view",
      "type": "function"
    },
    {
      "inputs": [
        {
          "internalType": "uint256",
          "name": "_tokenId",
          "type": "uint256"
        }
      ],
      "name": "getProduct",
      "outputs": [
        {
          "components": [
            {
              "internalType": "string",
              "name": "name",
              "type": "string"
            },
            {
              "internalType": "string",
              "name": "description",
              "type": "string"
            },
            {
              "internalType": "address",
              "name": "producer",
              "type": "address"
            },
            {
              "internalType": "uint256",
              "name": "timestamp",
              "type": "uint256"
            },
            {
              "internalType": "string",
              "name": "ipfsHash",
              "type": "string"
            },
            {
              "internalType": "bool",
              "name": "isCertified",
              "type": "bool"
            },
            {
              "internalType": "uint256",
              "name": "price",
              "type": "uint256"
            },
            {
              "internalType": "uint256",
              "name": "carbonFootprint",
              "type": "uint256"
            }
          ],
          "internalType": "struct AfriTrace.Product",
          "name": "",
          "type": "tuple"
        }
      ],
      "stateMutability": "view",
      "type": "function"
    },
    {
      "inputs": [
        {
          "internalType": "bytes32",
          "name": "requestId",
          "type": "bytes32"
        }
      ],
      "name": "getRandomResult",
      "outputs": [
        {
          "internalType": "uint256",
          "name": "",
          "type": "uint256"
        }
      ],
      "stateMutability": "view",
      "type": "function"
    },
    {
      "inputs": [
        {
          "internalType": "bytes32",
          "name": "role",
          "type": "bytes32"
        }
      ],
      "name": "getRoleAdmin",
      "outputs": [
        {
          "internalType": "bytes32",
          "name": "",
          "type": "bytes32"
        }
      ],
      "stateMutability": "view",
      "type": "function"
    },
    {
      "inputs": [
        {
          "internalType": "uint256",
          "name": "_tokenId",
          "type": "uint256"
        }
      ],
      "name": "getSupplyChain",
      "outputs": [
        {
          "components": [
            {
              "internalType": "address",
              "name": "stakeholder",
              "type": "address"
            },
            {
              "internalType": "string",
              "name": "location",
              "type": "string"
            },
            {
              "internalType": "uint256",
              "name": "timestamp",
              "type": "uint256"
            },
            {
              "internalType": "string",
              "name": "stepDescription",
              "type": "string"
            },
            {
              "internalType": "int256",
              "name": "temperature",
              "type": "int256"
            },
            {
              "internalType": "uint256",
              "name": "humidity",
              "type": "uint256"
            }
          ],
          "internalType": "struct AfriTrace.SupplyChainStep[]",
          "name": "",
          "type": "tuple[]"
        }
      ],
      "stateMutability": "view",
      "type": "function"
    },
    {
      "inputs": [
        {
          "internalType": "uint256",
          "name": "_tokenId",
          "type": "uint256"
        }
      ],
      "name": "getSupplyChainLength",
      "outputs": [
        {
          "internalType": "uint256",
          "name": "",
          "type": "uint256"
        }
      ],
      "stateMutability": "view",
      "type": "function"
    },
    {
      "inputs": [
        {
          "internalType": "bytes32",
          "name": "role",
          "type": "bytes32"
        },
        {
          "internalType": "address",
          "name": "account",
          "type": "address"
        }
      ],
      "name": "grantRole",
      "outputs": [],
      "stateMutability": "nonpayable",
      "type": "function"
    },
    {
      "inputs": [
        {
          "internalType": "bytes32",
          "name": "role",
          "type": "bytes32"
        },
        {
          "internalType": "address",
          "name": "account",
          "type": "address"
        }
      ],
      "name": "hasRole",
      "outputs": [
        {
          "internalType": "bool",
          "name": "",
          "type": "bool"
        }
      ],
      "stateMutability": "view",
      "type": "function"
    },
    {
      "inputs": [],
      "name": "i_vrfV2PlusWrapper",
      "outputs": [
        {
          "internalType": "contract IVRFV2PlusWrapper",
          "name": "",
          "type": "address"
        }
      ],
      "stateMutability": "view",
      "type": "function"
    },
    {
      "inputs": [
        {
          "internalType": "address",
          "name": "owner",
          "type": "address"
        },
        {
          "internalType": "address",
          "name": "operator",
          "type": "address"
        }
      ],
      "name": "isApprovedForAll",
      "outputs": [
        {
          "internalType": "bool",
          "name": "",
          "type": "bool"
        }
      ],
      "stateMutability": "view",
      "type": "function"
    },
    {
      "inputs": [],
      "name": "name",
      "outputs": [
        {
          "internalType": "string",
          "name": "",
          "type": "string"
        }
      ],
      "stateMutability": "view",
      "type": "function"
    },
    {
      "inputs": [
        {
          "internalType": "uint256",
          "name": "_amount",
          "type": "uint256"
        }
      ],
      "name": "offsetCarbon",
      "outputs": [],
      "stateMutability": "nonpayable",
      "type": "function"
    },
    {
      "inputs": [
        {
          "internalType": "uint256",
          "name": "tokenId",
          "type": "uint256"
        }
      ],
      "name": "ownerOf",
      "outputs": [
        {
          "internalType": "address",
          "name": "",
          "type": "address"
        }
      ],
      "stateMutability": "view",
      "type": "function"
    },
    {
      "inputs": [],
      "name": "paymentToken",
      "outputs": [
        {
          "internalType": "contract IERC20",
          "name": "",
          "type": "address"
        }
      ],
      "stateMutability": "view",
      "type": "function"
    },
    {
      "inputs": [
        {
          "internalType": "uint256",
          "name": "",
          "type": "uint256"
        }
      ],
      "name": "products",
      "outputs": [
        {
          "internalType": "string",
          "name": "name",
          "type": "string"
        },
        {
          "internalType": "string",
          "name": "description",
          "type": "string"
        },
        {
          "internalType": "address",
          "name": "producer",
          "type": "address"
        },
        {
          "internalType": "uint256",
          "name": "timestamp",
          "type": "uint256"
        },
        {
          "internalType": "string",
          "name": "ipfsHash",
          "type": "string"
        },
        {
          "internalType": "bool",
          "name": "isCertified",
          "type": "bool"
        },
        {
          "internalType": "uint256",
          "name": "price",
          "type": "uint256"
        },
        {
          "internalType": "uint256",
          "name": "carbonFootprint",
          "type": "uint256"
        }
      ],
      "stateMutability": "view",
      "type": "function"
    },
    {
      "inputs": [
        {
          "internalType": "uint256",
          "name": "_tokenId",
          "type": "uint256"
        }
      ],
      "name": "purchaseProduct",
      "outputs": [],
      "stateMutability": "nonpayable",
      "type": "function"
    },
    {
      "inputs": [
        {
          "internalType": "uint256",
          "name": "_requestId",
          "type": "uint256"
        },
        {
          "internalType": "uint256[]",
          "name": "_randomWords",
          "type": "uint256[]"
        }
      ],
      "name": "rawFulfillRandomWords",
      "outputs": [],
      "stateMutability": "nonpayable",
      "type": "function"
    },
    {
      "inputs": [
        {
          "internalType": "bytes32",
          "name": "role",
          "type": "bytes32"
        },
        {
          "internalType": "address",
          "name": "callerConfirmation",
          "type": "address"
        }
      ],
      "name": "renounceRole",
      "outputs": [],
      "stateMutability": "nonpayable",
      "type": "function"
    },
    {
      "inputs": [
        {
          "internalType": "bool",
          "name": "enableNativePayment",
          "type": "bool"
        }
      ],
      "name": "requestRandomNumber",
      "outputs": [
        {
          "internalType": "uint256",
          "name": "",
          "type": "uint256"
        }
      ],
      "stateMutability": "nonpayable",
      "type": "function"
    },
    {
      "inputs": [
        {
          "internalType": "uint256",
          "name": "_disputeId",
          "type": "uint256"
        },
        {
          "internalType": "string",
          "name": "_resolution",
          "type": "string"
        }
      ],
      "name": "resolveDispute",
      "outputs": [],
      "stateMutability": "nonpayable",
      "type": "function"
    },
    {
      "inputs": [
        {
          "internalType": "bytes32",
          "name": "role",
          "type": "bytes32"
        },
        {
          "internalType": "address",
          "name": "account",
          "type": "address"
        }
      ],
      "name": "revokeRole",
      "outputs": [],
      "stateMutability": "nonpayable",
      "type": "function"
    },
    {
      "inputs": [
        {
          "internalType": "address",
          "name": "from",
          "type": "address"
        },
        {
          "internalType": "address",
          "name": "to",
          "type": "address"
        },
        {
          "internalType": "uint256",
          "name": "tokenId",
          "type": "uint256"
        }
      ],
      "name": "safeTransferFrom",
      "outputs": [],
      "stateMutability": "nonpayable",
      "type": "function"
    },
    {
      "inputs": [
        {
          "internalType": "address",
          "name": "from",
          "type": "address"
        },
        {
          "internalType": "address",
          "name": "to",
          "type": "address"
        },
        {
          "internalType": "uint256",
          "name": "tokenId",
          "type": "uint256"
        },
        {
          "internalType": "bytes",
          "name": "data",
          "type": "bytes"
        }
      ],
      "name": "safeTransferFrom",
      "outputs": [],
      "stateMutability": "nonpayable",
      "type": "function"
    },
    {
      "inputs": [
        {
          "internalType": "address",
          "name": "operator",
          "type": "address"
        },
        {
          "internalType": "bool",
          "name": "approved",
          "type": "bool"
        }
      ],
      "name": "setApprovalForAll",
      "outputs": [],
      "stateMutability": "nonpayable",
      "type": "function"
    },
    {
      "inputs": [
        {
          "internalType": "uint256",
          "name": "",
          "type": "uint256"
        },
        {
          "internalType": "uint256",
          "name": "",
          "type": "uint256"
        }
      ],
      "name": "supplyChain",
      "outputs": [
        {
          "internalType": "address",
          "name": "stakeholder",
          "type": "address"
        },
        {
          "internalType": "string",
          "name": "location",
          "type": "string"
        },
        {
          "internalType": "uint256",
          "name": "timestamp",
          "type": "uint256"
        },
        {
          "internalType": "string",
          "name": "stepDescription",
          "type": "string"
        },
        {
          "internalType": "int256",
          "name": "temperature",
          "type": "int256"
        },
        {
          "internalType": "uint256",
          "name": "humidity",
          "type": "uint256"
        }
      ],
      "stateMutability": "view",
      "type": "function"
    },
    {
      "inputs": [
        {
          "internalType": "bytes4",
          "name": "interfaceId",
          "type": "bytes4"
        }
      ],
      "name": "supportsInterface",
      "outputs": [
        {
          "internalType": "bool",
          "name": "",
          "type": "bool"
        }
      ],
      "stateMutability": "view",
      "type": "function"
    },
    {
      "inputs": [],
      "name": "symbol",
      "outputs": [
        {
          "internalType": "string",
          "name": "",
          "type": "string"
        }
      ],
      "stateMutability": "view",
      "type": "function"
    },
    {
      "inputs": [
        {
          "internalType": "uint256",
          "name": "tokenId",
          "type": "uint256"
        }
      ],
      "name": "tokenURI",
      "outputs": [
        {
          "internalType": "string",
          "name": "",
          "type": "string"
        }
      ],
      "stateMutability": "view",
      "type": "function"
    },
    {
      "inputs": [
        {
          "internalType": "address",
          "name": "from",
          "type": "address"
        },
        {
          "internalType": "address",
          "name": "to",
          "type": "address"
        },
        {
          "internalType": "uint256",
          "name": "tokenId",
          "type": "uint256"
        }
      ],
      "name": "transferFrom",
      "outputs": [],
      "stateMutability": "nonpayable",
      "type": "function"
    }
  ],
  "bytecode": "0x60c06040523480156200001157600080fd5b50604051620037e3380380620037e3833981016040819052620000349162000231565b816040518060400160405280600981526020016841667269547261636560b81b8152506040518060400160405280600381526020016210519560ea1b81525081600090816200008491906200032a565b5060016200009382826200032a565b50505060016007819055506000819050806001600160a01b0316631c4695f46040518163ffffffff1660e01b8152600401602060405180830381865afa158015620000e2573d6000803e3d6000fd5b505050506040513d601f19601f82011682018060405250810190620001089190620003f6565b6001600160a01b039081166080521660a052506200012860003362000161565b5050600a80546001600160a01b039485166001600160a01b031991821617909155600b805493909416921691909117909155506200041b565b60008281526006602090815260408083206001600160a01b038516845290915281205460ff166200020a5760008381526006602090815260408083206001600160a01b03861684529091529020805460ff19166001179055620001c13390565b6001600160a01b0316826001600160a01b0316847f2f8788117e7eff1d82e926ec794901d17c78024a50270940304540a733656f0d60405160405180910390a45060016200020e565b5060005b92915050565b80516001600160a01b03811681146200022c57600080fd5b919050565b600080600080608085870312156200024857600080fd5b620002538562000214565b9350620002636020860162000214565b9250620002736040860162000214565b6060959095015193969295505050565b634e487b7160e01b600052604160045260246000fd5b600181811c90821680620002ae57607f821691505b602082108103620002cf57634e487b7160e01b600052602260045260246000fd5b50919050565b601f82111562000325576000816000526020600020601f850160051c81016020861015620003005750805b601f850160051c820191505b8181101562000321578281556001016200030c565b5050505b505050565b81516001600160401b0381111562000346576200034662000283565b6200035e8162000357845462000299565b84620002d5565b602080601f8311600181146200039657600084156200037d5750858301515b600019600386901b1c1916600185901b17855562000321565b600085815260208120601f198616915b82811015620003c757888601518255948401946001909101908401620003a6565b5085821015620003e65787850151600019600388901b60f8161c191681555b5050505050600190811b01905550565b6000602082840312156200040957600080fd5b620004148262000214565b9392505050565b60805160a05161339b62000448600039600081816105b0015261097501526000610681015261339b6000f3fe608060405234801561001057600080fd5b50600436106102745760003560e01c80636352211e11610151578063b88d4fde116100c3578063cf51b45d11610087578063cf51b45d14610659578063d547741f1461066c578063e76d51681461067f578063e7e6c344146106a5578063e985e9c5146106ca578063ed4d26e9146106dd57600080fd5b8063b88d4fde146105ed578063b94fe91714610600578063b9db15b414610613578063bd15675e14610633578063c87b56dd1461064657600080fd5b806391d148541161011557806391d148541461057d57806395d89b41146105905780639c32c447146105985780639ed0868d146105ab578063a217fddf146105d2578063a22cb465146105da57600080fd5b80636352211e146104e957806369d0b517146104fc57806370a08231146105235780637aa2bdd4146105365780637acc0b201461055657600080fd5b80632f2ff15d116101ea57806338e76a03116101ae57806338e76a031461043e5780633a3602861461045157806342842e0e146104645780634d104adf14610477578063564a565d1461049e57806359b7aa35146104c257600080fd5b80632f2ff15d14610395578063301194cb146103a85780633013ce29146103bb57806332b1df39146103ce57806336568abe1461042b57600080fd5b80631a481ecf1161023c5780631a481ecf146103065780631fe543e31461031957806320fe1b361461032c57806323b872dd1461034c578063248a9ca31461035f5780632919e4c61461038257600080fd5b806301ffc9a71461027957806306fdde03146102a1578063081812fc146102b6578063095ea7b3146102e157806312065fe0146102f6575b600080fd5b61028c610287366004612800565b6106fd565b60405190151581526020015b60405180910390f35b6102a961070e565b604051610298919061286d565b6102c96102c4366004612880565b6107a0565b6040516001600160a01b039091168152602001610298565b6102f46102ef3660046128b5565b6107c9565b005b475b604051908152602001610298565b6102f861031436600461299e565b6107d8565b6102f4610327366004612a38565b610973565b61033f61033a366004612880565b6109dd565b6040516102989190612aea565b6102f461035a366004612ba7565b610ba7565b6102f861036d366004612880565b60009081526006602052604090206001015490565b6102f4610390366004612880565b610c32565b6102f46103a3366004612be3565b610d81565b6102f86103b6366004612c1d565b610da6565b600a546102c9906001600160a01b031681565b6102f86103dc366004612880565b604080517fb795a85eff1c712212867513db718f9f06a5de840c91e4bb93eb6603184477f360208083019190915281830193909352815180820383018152606090910190915280519101205490565b6102f4610439366004612be3565b610dcc565b6102f461044c366004612880565b610dff565b6102f461045f366004612c3a565b610f77565b6102f4610472366004612ba7565b6110b9565b6102f87fbb08418a67729a078f87bbc8d02a770929bb68f5bfdf134ae2ead6ed38e2f4ae81565b6104b16104ac366004612880565b6110d4565b604051610298959493929190612c71565b6102f87f4f72063d6dc4cf4bb4e008e0815997320f78a862b3e71fe66fa9ae685d1cd12f81565b6102c96104f7366004612880565b611226565b6102f87f65cb1d8422cdf0328f26b49e42e9f4524474c431da623cbe0ea455f1b67c9f7781565b6102f8610531366004612cc1565b611231565b6102f8610544366004612cc1565b600f6020526000908152604090205481565b610569610564366004612880565b611279565b604051610298989796959493929190612cdc565b61028c61058b366004612be3565b611465565b6102a9611490565b6102f46105a6366004612d4f565b61149f565b6102c97f000000000000000000000000000000000000000000000000000000000000000081565b6102f8600081565b6102f46105e8366004612d96565b6115a6565b6102f46105fb366004612dcd565b6115b1565b6102f861060e366004612880565b6115c8565b610626610621366004612880565b61167d565b6040516102989190612e49565b6102f4610641366004612880565b6118ea565b6102a9610654366004612880565b611a16565b6102f4610667366004612d4f565b611a8a565b6102f461067a366004612be3565b611bbe565b7f00000000000000000000000000000000000000000000000000000000000000006102c9565b6106b86106b3366004612eff565b611be3565b60405161029896959493929190612f21565b61028c6106d8366004612f73565b611d53565b6102f86106eb366004612880565b6000908152600d602052604090205490565b600061070882611d81565b92915050565b60606000805461071d90612f9d565b80601f016020809104026020016040519081016040528092919081815260200182805461074990612f9d565b80156107965780601f1061076b57610100808354040283529160200191610796565b820191906000526020600020905b81548152906001019060200180831161077957829003601f168201915b5050505050905090565b60006107ab82611da6565b506000828152600460205260409020546001600160a01b0316610708565b6107d4828233611ddf565b5050565b60006108047f4f72063d6dc4cf4bb4e008e0815997320f78a862b3e71fe66fa9ae685d1cd12f33611465565b6108295760405162461bcd60e51b815260040161082090612fd7565b60405180910390fd5b6008805490600061083983613031565b909155505060085461084b3382611dec565b60408051610100810182528881526020808201899052338284015242606083015260808201889052600060a0830181905260c0830188905260e08301879052848152600c90915291909120815181906108a4908261309a565b50602082015160018201906108b9908261309a565b5060408201516002820180546001600160a01b0319166001600160a01b0390921691909117905560608201516003820155608082015160048201906108fe908261309a565b5060a082015160058201805460ff191691151591909117905560c0820151600682015560e0909101516007909101556040517faf6ffb6277511513e7d579327cc1fc57f0266df2fb11a60b13487b8c9cd2c388906109619083908a90339061315a565b60405180910390a19695505050505050565b7f0000000000000000000000000000000000000000000000000000000000000000336001600160a01b038216146109ce576040516345d498b760e11b81523360048201526001600160a01b0382166024820152604401610820565b6109d88383611e06565b505050565b6060600d6000838152602001908152602001600020805480602002602001604051908101604052809291908181526020016000905b82821015610b9c5760008481526020908190206040805160c081019091526006850290910180546001600160a01b031682526001810180549293919291840191610a5b90612f9d565b80601f0160208091040260200160405190810160405280929190818152602001828054610a8790612f9d565b8015610ad45780601f10610aa957610100808354040283529160200191610ad4565b820191906000526020600020905b815481529060010190602001808311610ab757829003601f168201915b5050505050815260200160028201548152602001600382018054610af790612f9d565b80601f0160208091040260200160405190810160405280929190818152602001828054610b2390612f9d565b8015610b705780601f10610b4557610100808354040283529160200191610b70565b820191906000526020600020905b815481529060010190602001808311610b5357829003601f168201915b505050505081526020016004820154815260200160058201548152505081526020019060010190610a12565b505050509050919050565b6001600160a01b038216610bd157604051633250574960e11b815260006004820152602401610820565b6000610bde838333611e93565b9050836001600160a01b0316816001600160a01b031614610c2c576040516364283d7b60e01b81526001600160a01b0380861660048301526024820184905282166044820152606401610820565b50505050565b610c5c7f65cb1d8422cdf0328f26b49e42e9f4524474c431da623cbe0ea455f1b67c9f7733611465565b610cb45760405162461bcd60e51b815260206004820152602360248201527f53656e646572206973206e6f742061206365727469666965642063657274696660448201526234b2b960e91b6064820152608401610820565b6000818152600c602052604090206005015460ff1615610d165760405162461bcd60e51b815260206004820152601c60248201527f50726f6475637420697320616c726561647920636572746966696564000000006044820152606401610820565b6000818152600c602052604090819020600501805460ff19166001179055517fc8b9d883cafbe535d807079e0c2ce79bdf25ad40b40a6af0b5a6b291a363f41d90610d7690839033909182526001600160a01b0316602082015260400190565b60405180910390a150565b600082815260066020526040902060010154610d9c81611f8c565b610c2c8383611f96565b600080610dc2604051806020016040528085151581525061202a565b5060009392505050565b6001600160a01b0381163314610df55760405163334bd91960e11b815260040160405180910390fd5b6109d8828261209b565b610e07612108565b6000818152600c602052604090206005015460ff16610e685760405162461bcd60e51b815260206004820152601860248201527f50726f64756374206973206e6f742063657274696669656400000000000000006044820152606401610820565b6000818152600c6020526040812060060154610e83906115c8565b600a549091506001600160a01b03166323b872dd33610ea185611226565b6040516001600160e01b031960e085901b1681526001600160a01b03928316600482015291166024820152604481018490526064016020604051808303816000875af1158015610ef5573d6000803e3d6000fd5b505050506040513d601f19601f82011682018060405250810190610f19919061318b565b610f565760405162461bcd60e51b815260206004820152600e60248201526d14185e5b595b9d0819985a5b195960921b6044820152606401610820565b610f69610f6283611226565b3384612132565b50610f746001600755565b50565b610fa17f4f72063d6dc4cf4bb4e008e0815997320f78a862b3e71fe66fa9ae685d1cd12f33611465565b610fbd5760405162461bcd60e51b815260040161082090612fd7565b6040805160c08101825233815260208082018781524283850152606083018790526080830186905260a083018590526000898152600d835293842080546001808201835591865292909420835160069093020180546001600160a01b0319166001600160a01b03909316929092178255519192839290820190611040908261309a565b50604082015160028201556060820151600382019061105f908261309a565b506080820151816004015560a0820151816005015550507f4a4fab2f62ad8eecbe13651c9c0b56ed7124aba9d87267245fca018e4836c1b38633876040516110a9939291906131a8565b60405180910390a1505050505050565b6109d8838383604051806020016040528060008152506115b1565b600e6020526000908152604090208054600182015460028301805492936001600160a01b039092169261110690612f9d565b80601f016020809104026020016040519081016040528092919081815260200182805461113290612f9d565b801561117f5780601f106111545761010080835404028352916020019161117f565b820191906000526020600020905b81548152906001019060200180831161116257829003601f168201915b5050506003840154600485018054949560ff9092169491935091506111a390612f9d565b80601f01602080910402602001604051908101604052809291908181526020018280546111cf90612f9d565b801561121c5780601f106111f15761010080835404028352916020019161121c565b820191906000526020600020905b8154815290600101906020018083116111ff57829003601f168201915b5050505050905085565b600061070882611da6565b60006001600160a01b03821661125d576040516322718ad960e21b815260006004820152602401610820565b506001600160a01b031660009081526003602052604090205490565b600c6020526000908152604090208054819061129490612f9d565b80601f01602080910402602001604051908101604052809291908181526020018280546112c090612f9d565b801561130d5780601f106112e25761010080835404028352916020019161130d565b820191906000526020600020905b8154815290600101906020018083116112f057829003601f168201915b50505050509080600101805461132290612f9d565b80601f016020809104026020016040519081016040528092919081815260200182805461134e90612f9d565b801561139b5780601f106113705761010080835404028352916020019161139b565b820191906000526020600020905b81548152906001019060200180831161137e57829003601f168201915b505050506002830154600384015460048501805494956001600160a01b0390931694919350906113ca90612f9d565b80601f01602080910402602001604051908101604052809291908181526020018280546113f690612f9d565b80156114435780601f1061141857610100808354040283529160200191611443565b820191906000526020600020905b81548152906001019060200180831161142657829003601f168201915b5050505060058301546006840154600790940154929360ff9091169290915088565b60009182526006602090815260408084206001600160a01b0393909316845291905290205460ff1690565b60606001805461071d90612f9d565b600980549060006114af83613031565b90915550506009546040805160a081018252848152336020808301918252828401868152600060608501819052855180840187528181526080860152868152600e9092529390208251815590516001820180546001600160a01b0319166001600160a01b0390921691909117905591519091906002820190611531908261309a565b50606082015160038201805460ff19169115159190911790556080820151600482019061155e908261309a565b50506040805183815260208101869052338183015290517f89b79bdd21d92f99bbf75358698d6a2b7a0a48fe9467a9ff8e5bac1ac638a3fc92509081900360600190a1505050565b6107d43383836121e2565b6115bc848484610ba7565b610c2c84848484612281565b600b5460405163bcfd032d60e01b815273514910771af9ca656af840dff83e8264ecf986ca6004820152610348602482015260009182916001600160a01b039091169063bcfd032d9060440160a060405180830381865afa158015611631573d6000803e3d6000fd5b505050506040513d601f19601f8201168201806040525081019061165591906131f5565b5050509150506305f5e100838261166c9190613245565b6116769190613272565b9392505050565b6116d0604051806101000160405280606081526020016060815260200160006001600160a01b03168152602001600081526020016060815260200160001515815260200160008152602001600081525090565b6000828152600c602052604090819020815161010081019092528054829082906116f990612f9d565b80601f016020809104026020016040519081016040528092919081815260200182805461172590612f9d565b80156117725780601f1061174757610100808354040283529160200191611772565b820191906000526020600020905b81548152906001019060200180831161175557829003601f168201915b5050505050815260200160018201805461178b90612f9d565b80601f01602080910402602001604051908101604052809291908181526020018280546117b790612f9d565b80156118045780601f106117d957610100808354040283529160200191611804565b820191906000526020600020905b8154815290600101906020018083116117e757829003601f168201915b505050918352505060028201546001600160a01b031660208201526003820154604082015260048201805460609092019161183e90612f9d565b80601f016020809104026020016040519081016040528092919081815260200182805461186a90612f9d565b80156118b75780601f1061188c576101008083540402835291602001916118b7565b820191906000526020600020905b81548152906001019060200180831161189a57829003601f168201915b5050509183525050600582015460ff16151560208201526006820154604082015260079091015460609091015292915050565b600a546040516323b872dd60e01b8152336004820152306024820152604481018390526001600160a01b03909116906323b872dd906064016020604051808303816000875af1158015611941573d6000803e3d6000fd5b505050506040513d601f19601f82011682018060405250810190611965919061318b565b6119a25760405162461bcd60e51b815260206004820152600e60248201526d14185e5b595b9d0819985a5b195960921b6044820152606401610820565b60006119af606483613245565b336000908152600f60205260408120805492935083929091906119d3908490613286565b909155505060408051338152602081018390527f350bf313870e10df1d413a1bccf1a33bccc27905e8d4d34ac86870c0541b707d91015b60405180910390a15050565b6060611a2182611da6565b506000611a3960408051602081019091526000815290565b90506000815111611a595760405180602001604052806000815250611676565b80611a63846123aa565b604051602001611a74929190613299565b6040516020818303038152906040529392505050565b611ab47fbb08418a67729a078f87bbc8d02a770929bb68f5bfdf134ae2ead6ed38e2f4ae33611465565b611b005760405162461bcd60e51b815260206004820152601860248201527f53656e646572206973206e6f7420616e206172626974657200000000000000006044820152606401610820565b6000828152600e602052604090206003015460ff1615611b625760405162461bcd60e51b815260206004820152601b60248201527f4469737075746520697320616c7265616479207265736f6c76656400000000006044820152606401610820565b6000828152600e6020526040902060038101805460ff19166001179055600401611b8c828261309a565b507f831764ac02a33c193cba23a0de34c986e9b50402bf3c9febf6ff2f63d4c0435d8282604051611a0a9291906132c8565b600082815260066020526040902060010154611bd981611f8c565b610c2c838361209b565b600d6020528160005260406000208181548110611bff57600080fd5b6000918252602090912060069091020180546001820180546001600160a01b039092169450919250611c3090612f9d565b80601f0160208091040260200160405190810160405280929190818152602001828054611c5c90612f9d565b8015611ca95780601f10611c7e57610100808354040283529160200191611ca9565b820191906000526020600020905b815481529060010190602001808311611c8c57829003601f168201915b505050505090806002015490806003018054611cc490612f9d565b80601f0160208091040260200160405190810160405280929190818152602001828054611cf090612f9d565b8015611d3d5780601f10611d1257610100808354040283529160200191611d3d565b820191906000526020600020905b815481529060010190602001808311611d2057829003601f168201915b5050505050908060040154908060050154905086565b6001600160a01b03918216600090815260056020908152604080832093909416825291909152205460ff1690565b60006001600160e01b03198216637965db0b60e01b148061070857506107088261243d565b6000818152600260205260408120546001600160a01b03168061070857604051637e27328960e01b815260048101849052602401610820565b6109d8838383600161248d565b6107d4828260405180602001604052806000815250612593565b600081600081518110611e1b57611e1b6132e1565b6020026020010151905060007fb795a85eff1c712212867513db718f9f06a5de840c91e4bb93eb6603184477f384604051602001611e63929190918252602082015260400190565b6040516020818303038152906040528051906020012090506000606483611e8a91906132f7565b90915550505050565b6000828152600260205260408120546001600160a01b0390811690831615611ec057611ec08184866125aa565b6001600160a01b03811615611efe57611edd60008560008061248d565b6001600160a01b038116600090815260036020526040902080546000190190555b6001600160a01b03851615611f2d576001600160a01b0385166000908152600360205260409020805460010190555b60008481526002602052604080822080546001600160a01b0319166001600160a01b0389811691821790925591518793918516917fddf252ad1be2c89b69c2b068fc378daa952ba7f163c4a11628f55a4df523b3ef91a4949350505050565b610f74813361260e565b6000611fa28383611465565b6120225760008381526006602090815260408083206001600160a01b03861684529091529020805460ff19166001179055611fda3390565b6001600160a01b0316826001600160a01b0316847f2f8788117e7eff1d82e926ec794901d17c78024a50270940304540a733656f0d60405160405180910390a4506001610708565b506000610708565b60607f92fd13387c7fe7befbc38d303d6468778fb9731bc4583f17d92989c6fcfdeaaa8260405160240161206391511515815260200190565b60408051601f198184030181529190526020810180516001600160e01b03166001600160e01b03199093169290921790915292915050565b60006120a78383611465565b156120225760008381526006602090815260408083206001600160a01b0386168085529252808320805460ff1916905551339286917ff6391f5c32d9c69d2a47ea670b442974b53935d1edc7fd64eb21e047a839171b9190a4506001610708565b60026007540361212b57604051633ee5aeb560e01b815260040160405180910390fd5b6002600755565b6001600160a01b03821661215c57604051633250574960e11b815260006004820152602401610820565b600061216a83836000611e93565b90506001600160a01b03811661219657604051637e27328960e01b815260048101839052602401610820565b836001600160a01b0316816001600160a01b031614610c2c576040516364283d7b60e01b81526001600160a01b0380861660048301526024820184905282166044820152606401610820565b6001600160a01b03821661221457604051630b61174360e31b81526001600160a01b0383166004820152602401610820565b6001600160a01b03838116600081815260056020908152604080832094871680845294825291829020805460ff191686151590811790915591519182527f17307eab39ab6107e8899845ad3d59bd9653f200f220920489ca2b5937696c31910160405180910390a3505050565b6001600160a01b0383163b15610c2c57604051630a85bd0160e11b81526001600160a01b0384169063150b7a02906122c390339088908790879060040161330b565b6020604051808303816000875af19250505080156122fe575060408051601f3d908101601f191682019092526122fb91810190613348565b60015b612367573d80801561232c576040519150601f19603f3d011682016040523d82523d6000602084013e612331565b606091505b50805160000361235f57604051633250574960e11b81526001600160a01b0385166004820152602401610820565b805181602001fd5b6001600160e01b03198116630a85bd0160e11b146123a357604051633250574960e11b81526001600160a01b0385166004820152602401610820565b5050505050565b606060006123b783612647565b600101905060008167ffffffffffffffff8111156123d7576123d76128df565b6040519080825280601f01601f191660200182016040528015612401576020820181803683370190505b5090508181016020015b600019016f181899199a1a9b1b9c1cb0b131b232b360811b600a86061a8153600a850494508461240b57509392505050565b60006001600160e01b031982166380ac58cd60e01b148061246e57506001600160e01b03198216635b5e139f60e01b145b8061070857506301ffc9a760e01b6001600160e01b0319831614610708565b80806124a157506001600160a01b03821615155b156125635760006124b184611da6565b90506001600160a01b038316158015906124dd5750826001600160a01b0316816001600160a01b031614155b80156124f057506124ee8184611d53565b155b156125195760405163a9fbf51f60e01b81526001600160a01b0384166004820152602401610820565b81156125615783856001600160a01b0316826001600160a01b03167f8c5be1e5ebec7d5bd14f71427d1e84f3dd0314c0f7b2291e5b200ac8c7c3b92560405160405180910390a45b505b5050600090815260046020526040902080546001600160a01b0319166001600160a01b0392909216919091179055565b61259d838361271f565b6109d86000848484612281565b6125b5838383612784565b6109d8576001600160a01b0383166125e357604051637e27328960e01b815260048101829052602401610820565b60405163177e802f60e01b81526001600160a01b038316600482015260248101829052604401610820565b6126188282611465565b6107d45760405163e2517d3f60e01b81526001600160a01b038216600482015260248101839052604401610820565b60008072184f03e93ff9f4daa797ed6e38ed64bf6a1f0160401b83106126865772184f03e93ff9f4daa797ed6e38ed64bf6a1f0160401b830492506040015b6d04ee2d6d415b85acef810000000083106126b2576d04ee2d6d415b85acef8100000000830492506020015b662386f26fc1000083106126d057662386f26fc10000830492506010015b6305f5e10083106126e8576305f5e100830492506008015b61271083106126fc57612710830492506004015b6064831061270e576064830492506002015b600a83106107085760010192915050565b6001600160a01b03821661274957604051633250574960e11b815260006004820152602401610820565b600061275783836000611e93565b90506001600160a01b038116156109d8576040516339e3563760e11b815260006004820152602401610820565b60006001600160a01b038316158015906127e25750826001600160a01b0316846001600160a01b031614806127be57506127be8484611d53565b806127e257506000828152600460205260409020546001600160a01b038481169116145b949350505050565b6001600160e01b031981168114610f7457600080fd5b60006020828403121561281257600080fd5b8135611676816127ea565b60005b83811015612838578181015183820152602001612820565b50506000910152565b6000815180845261285981602086016020860161281d565b601f01601f19169290920160200192915050565b6020815260006116766020830184612841565b60006020828403121561289257600080fd5b5035919050565b80356001600160a01b03811681146128b057600080fd5b919050565b600080604083850312156128c857600080fd5b6128d183612899565b946020939093013593505050565b634e487b7160e01b600052604160045260246000fd5b604051601f8201601f1916810167ffffffffffffffff8111828210171561291e5761291e6128df565b604052919050565b600067ffffffffffffffff831115612940576129406128df565b612953601f8401601f19166020016128f5565b905082815283838301111561296757600080fd5b828260208301376000602084830101529392505050565b600082601f83011261298f57600080fd5b61167683833560208501612926565b600080600080600060a086880312156129b657600080fd5b853567ffffffffffffffff808211156129ce57600080fd5b6129da89838a0161297e565b965060208801359150808211156129f057600080fd5b6129fc89838a0161297e565b95506040880135915080821115612a1257600080fd5b50612a1f8882890161297e565b9598949750949560608101359550608001359392505050565b60008060408385031215612a4b57600080fd5b8235915060208084013567ffffffffffffffff80821115612a6b57600080fd5b818601915086601f830112612a7f57600080fd5b813581811115612a9157612a916128df565b8060051b9150612aa28483016128f5565b8181529183018401918481019089841115612abc57600080fd5b938501935b83851015612ada57843582529385019390850190612ac1565b8096505050505050509250929050565b600060208083018184528085518083526040925060408601915060408160051b87010184880160005b83811015612b9957888303603f19018552815180516001600160a01b031684528781015160c089860181905290612b4c82870182612841565b915050878201518886015260608083015186830382880152612b6e8382612841565b6080858101519089015260a09485015194909701939093525050509386019390860190600101612b13565b509098975050505050505050565b600080600060608486031215612bbc57600080fd5b612bc584612899565b9250612bd360208501612899565b9150604084013590509250925092565b60008060408385031215612bf657600080fd5b82359150612c0660208401612899565b90509250929050565b8015158114610f7457600080fd5b600060208284031215612c2f57600080fd5b813561167681612c0f565b600080600080600060a08688031215612c5257600080fd5b85359450602086013567ffffffffffffffff808211156129f057600080fd5b8581526001600160a01b038516602082015260a060408201819052600090612c9b90830186612841565b84151560608401528281036080840152612cb58185612841565b98975050505050505050565b600060208284031215612cd357600080fd5b61167682612899565b6000610100808352612cf08184018c612841565b90508281036020840152612d04818b612841565b6001600160a01b038a1660408501526060840189905283810360808501529050612d2e8188612841565b95151560a0840152505060c081019290925260e09091015295945050505050565b60008060408385031215612d6257600080fd5b82359150602083013567ffffffffffffffff811115612d8057600080fd5b612d8c8582860161297e565b9150509250929050565b60008060408385031215612da957600080fd5b612db283612899565b91506020830135612dc281612c0f565b809150509250929050565b60008060008060808587031215612de357600080fd5b612dec85612899565b9350612dfa60208601612899565b925060408501359150606085013567ffffffffffffffff811115612e1d57600080fd5b8501601f81018713612e2e57600080fd5b612e3d87823560208401612926565b91505092959194509250565b6020815260008251610100806020850152612e68610120850183612841565b91506020850151601f1980868503016040870152612e868483612841565b935060408701519150612ea460608701836001600160a01b03169052565b6060870151608087015260808701519150808685030160a087015250612eca8382612841565b92505060a0850151612ee060c086018215159052565b5060c085015160e085015260e085015181850152508091505092915050565b60008060408385031215612f1257600080fd5b50508035926020909101359150565b6001600160a01b038716815260c060208201819052600090612f4590830188612841565b8660408401528281036060840152612f5d8187612841565b6080840195909552505060a00152949350505050565b60008060408385031215612f8657600080fd5b612f8f83612899565b9150612c0660208401612899565b600181811c90821680612fb157607f821691505b602082108103612fd157634e487b7160e01b600052602260045260246000fd5b50919050565b60208082526024908201527f53656e646572206973206e6f742061207665726966696564207374616b65686f604082015263363232b960e11b606082015260800190565b634e487b7160e01b600052601160045260246000fd5b6000600182016130435761304361301b565b5060010190565b601f8211156109d8576000816000526020600020601f850160051c810160208610156130735750805b601f850160051c820191505b818110156130925782815560010161307f565b505050505050565b815167ffffffffffffffff8111156130b4576130b46128df565b6130c8816130c28454612f9d565b8461304a565b602080601f8311600181146130fd57600084156130e55750858301515b600019600386901b1c1916600185901b178555613092565b600085815260208120601f198616915b8281101561312c5788860151825594840194600190910190840161310d565b508582101561314a5787850151600019600388901b60f8161c191681555b5050505050600190811b01905550565b8381526060602082015260006131736060830185612841565b905060018060a01b0383166040830152949350505050565b60006020828403121561319d57600080fd5b815161167681612c0f565b8381526001600160a01b03831660208201526060604082018190526000906131d290830184612841565b95945050505050565b805169ffffffffffffffffffff811681146128b057600080fd5b600080600080600060a0868803121561320d57600080fd5b613216866131db565b9450602086015193506040860151925060608601519150613239608087016131db565b90509295509295909350565b80820281158282048414176107085761070861301b565b634e487b7160e01b600052601260045260246000fd5b6000826132815761328161325c565b500490565b808201808211156107085761070861301b565b600083516132ab81846020880161281d565b8351908301906132bf81836020880161281d565b01949350505050565b8281526040602082015260006127e26040830184612841565b634e487b7160e01b600052603260045260246000fd5b6000826133065761330661325c565b500690565b6001600160a01b038581168252841660208201526040810183905260806060820181905260009061333e90830184612841565b9695505050505050565b60006020828403121561335a57600080fd5b8151611676816127ea56fea2646970667358221220b137d29d0411af08f5539ecd5ab841541b8f321a9ba99ad0dfe7c8945a03b9f164736f6c63430008180033",
  "linkReferences": {},
  "deployedLinkReferences": {}
}